:100000000EC02AC01CC01BC01AC01AC018C017C01E
:1000100016C015C014C013C012C011C010C01124E6
:100020001FBECFE5D1E0DEBFCDBF11E0A0E6B0E05E
:1000300001C01D92A333B107E1F7E5D00FC1E0CFB6
:100040001F920F920FB60F921124109265000F901D
:100050000FBE0F901F9018951F920F920FB60F9220
:1000600011242F938F939F9300000000B29B3AC0FE
:1000700012BE20916500222369F48091690090915D
:100080006A0090936700809366001092680082E097
:1000900083BF02C02A30E0F480916600909167002F
:1000A00091FF07C0C19A809168008F5F80936800BC
:1000B00001C0C1988091660090916700880F991FD8
:1000C00090936700809366002F5F209365000AC0BD
:1000D0008091680080FF02C0C19A01C0C19810924F
:1000E000650013BE9F918F912F910F900FBE0F90BF
:1000F0001F90189580EC86B93699FECF24B135B1A2
:10010000C90108950F931F9380EC86B93699FECFED
:1001100004B115B1209160003091610040916200FE
:100120005091630060916400E62FF0E0EE0FFF1F36
:10013000E559FF4F80819181A0E0B0E0281B390B89
:100140004A0B5B0B20936000309361004093620088
:1001500050936300209160003091610040916200F3
:1001600050916300C801A0E0B0E0820F931FA41F6C
:10017000B51F8093600090936100A0936200B093DC
:100180006300118300836F5F60936400609160007F
:1001900070916100809162009091630024E630E0EC
:1001A00040E050E039D030936A00209369001F91FD
:1001B0000F910895EBE6F0E01192119281E0E333A4
:1001C000F807D1F780E888B988E084BB83ED87B968
:1001D00083E085BF80E48BBF82E089BFC19887BB85
:1001E00088EE93E000000197E9F7789483E886B9F8
:1001F00001C088DF809164008436D9F710926400D2
:1002000087E886B90895D6DF7DDF80916400843663
:10021000D9F710926400F8CFA1E21A2EAA1BBB1BDB
:10022000FD010DC0AA1FBB1FEE1FFF1FA217B307C2
:10023000E407F50720F0A21BB30BE40BF50B661FD8
:10024000771F881F991F1A9469F76095709580959C
:1002500090959B01AC01BD01CF010895F894FFCFAB
:00000001FF
