:100000000EC02AC01CC01BC01AC01AC018C017C01E
:1000100016C015C014C013C012C011C010C01124E6
:100020001FBECFE5D1E0DEBFCDBF11E0A0E6B0E05E
:1000300001C01D92A133B107E1F76FD0C3C0E0CF7B
:100040001F920F920FB60F921124109266000F901C
:100050000FBE0F901F9018951F920F920FB60F9220
:1000600011242F938F939F930000B29B35C012BE33
:1000700020916600222349F48091670090916800E6
:10008000909365008093640002C02A30E0F4809170
:1000900064009091650091FF07C0C19A8091630050
:1000A0008F5F8093630001C0C1988091640090913C
:1000B0006500880F991F90936500809364002F5FFF
:1000C0002093660009C08091630080FF02C0C19A3E
:1000D00001C0C198109266009F918F912F910F904F
:1000E0000FBE0F901F901895E9E6F0E01192119263
:1000F00081E0E133F807D1F780E888B988E084BB74
:1001000083ED87B983E085BF80E48BBF82E083BF46
:1001100089BFC19887BB789408950F931F93E4DF3C
:100120001091600003EC06B93699FECF44B155B189
:100130002091610030916200E12FF0E0EE0FFF1F8F
:10014000E759FF4F80819181281B390B3093620062
:10015000209361008091610090916200840F951F4F
:100160009093620080936100518340831F5F809170
:1001700061009091620064E670E010D070936800B6
:1001800060936700143679F610E0CDCF83EC86B922
:100190003699FECF24B135B1C9010895AA1BBB1B06
:1001A00051E107C0AA1FBB1FA617B70710F0A61B77
:1001B000B70B881F991F5A95A9F780959095BC0198
:0801C000CD010895F894FFCF72
:00000001FF
